:03000000020130CA
:10000300EEC0E0EFC0E088F0E58124FDF8ECC6C067
:09001300E008EDC6C0E0A8F022EF
:10001C00EB30E11320E00EC083C08289828A83E03A
:10002C00D082D08322E3226405700EC083C0828903
:0B003C00828A8393D082D08322E722C7
:04004700116B0153E5
:04004B0011870159BF
:04004F0011A30153A5
:0600530008B800010C22B8
:0600590009B900010A22B2
:0C005F00E0A3FCE0A3FDE0A3FEE0FF2214
:10006B00CD30E11520E00FC083C08288828C83CD18
:0C007B00F0D082D08322CDF222CDF622FC
:10008700CB30E11520E00FC083C08289828A83CB01
:0C009700F0D082D08322CBF322CBF722E2
:1000A300ED30E11320E00EC083C08288828C83E0B0
:1000B300D082D08322E2226405700EC083C082887E
:0B00C300828C8393D082D08322E6223F
:1000CE00E4FEFFEB700122239000D87380088011AC
:1000DE00801E80028025E7090FBF00010E70F78099
:1000EE002889828A83E0A30FBF00010E70F7801962
:1000FE00E3090FBF00010E70F7800E89828A83E438
:0F010E0093A30FBF00010E70F61FBFFF011E224B
:10011D00EFB40A077F0D12011D7F0A3099FDC299B8
:03012D008F992285
:10013000758138E4787FF6D8FD900698E4937002D4
:10014000804EC31392D5C31392D1FFA3E493F8B0AA
:10015000D5402130D505E4A393F5A0E420D102A336
:100160009320D507F608DFF3A380D1F208B800F694
:1001700005A080F2E8030303541F2420F9E8540784
:10018000F8E4D333B80002800333D8FD47F780D8B2
:0601900075A0FF02067AD3
:10019600D083D0820202C112005FEFC2E74E700325
:1001A6000202BDC082C083E58124FBF8F9E6084659
:1001B60060DE1202DF0FBF0006D083D08280E1EF3F
:1001C60024805007C3CB9B500D80C5CB9B4007D0E6
:1001D60083D0820202B5F6F583EC4D701FBE801CFB
:1001E600E58124FBF8E583A2D513FFE692E7FE1826
:1001F600E6FD18E6FCD083D0820202CEE58124FB20
:10020600F8E6CEF618E6CDF618E6CCF6EFCCFFE823
:100216002402F9F8E7FA19E7FB19E7FCE4F5F075AB
:10022600821A758380801DE58303F58330E706A770
:10023600F009E4F5F0C3EF33FFED33FDEE33FE4096
:100246000C30E717C3EF9CED9BEE9A400EC3EF9C74
:10025600FFED9BFDEE9AFEE58342F0D582C9E7FAF3
:1002660019E9F81919E720E7191ABA0003020196E5
:10027600E5F025F0FFE633FC18E633FD18E633FE1D
:100286008009FE09E7FDE6FCE5F0FFEF30E7160C16
:10029600BC00120DBD000E0EBE000A0A7007D08308
:0F02A600D0820202B5EAA2D5D083D0820202C86C
:1002B50074FF13FF7E80800774FF8001E4FFFEFD5D
:1002C500FC800613FFEE92E7FED0E0F8D0F0E58162
:1002D50024FCF581C0F0E8C0E022E7D2E7C7330986
:1002E500E733FB92D592D1EED2E7CE33EF33FF5011
:0402F50002B2D5225A
:1002F9003F8000003DCCCCCD3C23D70A3A83126F16
:1003090038D1B7173727C5AC358637BD33D6BF9532
:10031900322BCC7724E69595179ABE150A4FB11F53
:10032900EB60105407700AEB543803241C12035471
:10033900222323120354EB543870012203241CFB9B
:10034900120003EB12035412036A229002F9FC9380
:0E035900FF0CEC93FE0CEC93FD0CEC93FC22DD
:1003670012005FEF4E601AE58124FEF924FEF8E7DC
:1003770019477019EE33EF33B4FF030202BD0202CF
:10038700C1E58124FDF8E63308E63380EB1202DF8E
:10039700248150082B5008A2D50202B52B50DFF755
:1003A700FAE61846197020B7800DEE33CAA2D513A6
:1003B700FFCA13FE0202CEEC4D703CBE8046E6FC3F
:1003C70008E6FD08E680E4EC4D7039BE800280EE59
:1003D700E4CEC7CDC6F5F008E4C6CCF9FBFFFA803A
:1003E70076E4CEC9E4CDCAE4FFCCFB803CE4C9CDBA
:1003F700CFCBECCACC8060E4F9FAFBFFCECDCCC5FD
:10040700F00880538CF0E660D8A4C5F0CDFAC5F0AB
:10041700E6A42DCEF9C5F03400FDE6A42DC5F034D1
:1004270000FDCCFBC5F0CC7F0008E660C0A42EC55C
:10043700F03C50010DCAFCC5F0CEE6A42AC5F03D3C
:1004470050010FC9FDC5F0CAE6A429C5F03F7901DF
:10045700400119CBC5F0CF08E6A42AC5F03F5005E7
:100467000BBB000109CCC5F0FAE6A42CC5F03B5044
:100477000109CDC5F0CCE6A42DFDC5F039FE330842
:10048700500906B60011A2D50202B5EA33FAEC33D9
:10049700FCED33FDEE33FEEA30E7140CBC00100D23
:1004A700BD000C0EBE000806B60004A2D580D9E632
:0504B700A2D50202C8FD
:0804BC008E048F05EC4D601663
:1004C400E4FA7B03EA4B6007EB1B70F81A80F5ED46
:0704D4001D70E91C80E62207
:1004DB0075F004EF23D5F0FC540F4410F580E4F5D0
:1004EB0080EF540F4410F580E4F580FE7FC80204C2
:0104FB00BC44
:1004FC00758013758003E4FE7FC81204BC758013ED
:10050C007580031204BC7580137580031204BC75CE
:10051C0080127580021204BC7F281204DB7F0C123F
:07052C0004DB7F060204DB83
:050533007F010204DB62
:1005380075F004EF23D5F0FC540F4490F5805480F7
:10054800F580EF540F4490F5805480F5807E007F4D
:04055800C80204BC15
:07055C00EF4480FF0204DB05
:050563007F020204DB31
:0B0568008B338A3489358D36BD0105C8
:0A057300E4FF12055CE536B4020552
:0A057D007F4012055CE536B403056B
:0A0587007F1012055CE536B4040590
:100591007F5012055CAB33AA34A93512001C601ED2
:1005A100AB33AA34A9350535E5357002053412009F
:0F05B1001CFF120538E4FE7FC81204BC80D7225D
:1005C00075B28375D90075A4FF75A5FF75A6FF7573
:0905D000A7FF75AEFF75E24022A1
:0C05D900E4F525F5267527A875284122B9
:1005E5004465727A6569746967652054656D7065DF
:1005F50072617475723A202564B000536F6C6C7724
:090605006572743A202564B0000E
:10060E00C021C022C023C0247B01E4FA79087D05F5
:10061E007C0578E512080874FC2581F5817B01794B
:10062E0008E4FA7D01120568C025C026C027C0283F
:10063E007B017908E4FA7D057C06780012080874BF
:10064E00FC2581F5817B017908E4FA7D02020568BB
:10065E00D291C292D292E4FCFDC2910DED70010CCA
:0C066E00BC13F6BD88F3E5A0FF7E00225F
:10067A001205C01204FC1205331205D975A60075BD
:07068A00A0FF75B000C29053
:0706910012065E8FB080F934
:10069800041C01101D0000003F10210000A841109B
:1006A800250000A841102900007041102D0000F01D
:0106B8004100
:0106B9000040
:10080000EBFDEAFCE9F87BFFD083D0828581F0E440
:10081000C0E0C0E0C0E0AE81C082C08385F08275D8
:10082000F000C2D58009D0E0FDD0E0FCD0E0F812A5
:10083000004FFFC3E8C0E0ECC0E0EDC0E0EF605F58
:1008400030D5030208BAB4250D74FF3105D3740006
:1008500011FBD2D580D0120EFB80CBFF310F20F7D9
:10086000237009BF0013D2F3888280BAC0F075F0FC
:100870000AA42FD0F020F706FFEF11FB800231050C
:10088000888280A23112B4FFE3EF80F2E4120EFB03
:10089000D33122800DEF24D0B40A0040BE0126BB24
:1008A000FFEAE58124FDF581D082D08324FCF58127
:1008B000D0E0C083C082FF7E0022A882FF900F6636
:1008C000E493601F6FA36006A350F5A380F293FF2B
:1008D000400642F0888280C5A3E4938F83F582C2EC
:1008E000D1E47340B0D3A380D7C2F3D1EA8882D0D9
:1008F000E0FDD0E0FCD0E0F802081FC38008311210
:10090000B4FF027401D3CEC8CE500118F6800BC3D9
:100910008001D3CEC8CE500118E6500108CEC8CE13
:1009200022C3CE1414C8CE065002161608D380EA8D
:10093000E620F70411FB8002310518188882012691
:10094000E9C0E0E8F9E7F819E7FC19E7FD19E9C0A3
:10095000E0E4120047EE24FEF9E7C9D0E0C9120036
:1009600047E9F8D0E0F901EDE6FF1818310F24FF50
:100970004001E4F58320F108EFC0E0D1EAD0E0FFC8
:10098000D1FB01E97F2580E4C2F07406FD310575D5
:1009900082038012D2D1C2F611FE7582027D04302C
:1009A000F4048D827D08E618F583540FC0E0E583DA
:1009B00054F0C4C0E01582E58270EB7582008000BF
:1009C000D0E07006ED60031D80F6C0E03112C39DDB
:1009D000600B4009758300C0830DD5E0F9E5827096
:1009E0000430F0010D310FC330F001D39D5001E40C
:1009F000F58330F302711820F102D1EA7118BD00BD
:100A00000201E9D0E024F6500730D1022420240767
:100A1000243AFFD1FBDDEC01E9C2F6740630F402A2
:100A2000740B30F00104FD7582088D8311FEC0F057
:100A3000F153E6FC08E618CC7F0130F4027F038511
:100A400082F084F6EC54F025F0C48582F084C4CCA6
:100A5000540FC5F0C425F08582F0842C08F6DF0F12
:100A6000D0E0C5F0C0E0EFD583C4F1531821C00831
:100A7000E618FC80D0C2F07D0530F4027D0A758254
:100A80000A80A7E8FDF153E630E717D2D1EDF875FB
:100A9000820230F402758204C3E6CFE49FF618D5D3
:100AA00082F7EDF8A2F572F672D192F080C9E6C035
:100AB000E018E6FC18E6FD18D0E0C8F582EBC0E0CF
:100AC000EAC0E0E9C0E0EDFBECFAE8F9C082EEC074
:100AD000E01200CED0E0FED082D0E0F9D0E0FAD033
:100AE000E0FB31128F83B583005002F583310FC3D1
:100AF00095835001E4F58320F102D1EAC0833112DD
:100B0000F583E583600C158312004F6005FFD1FB70
:100B100080F0A882D08301E930F028E582B40A1180
:100B20007F2D20D10E7F2B20F5097F2030F61480F9
:100B3000027F30D1FBE582700A7F7820D1027F5896
:100B40001DD1FBC2F022C2F7120CB9C2F4BFFF03E1
:100B50000208E9EF2481FF20E7420FE583C39F608D
:100B600020401EC9C0E0C9F582FF0583F404258139
:100B7000F97D2EE7CDF709DFFAD0E0F9EDC0E0808E
:100B800019F404F5827F00058280067430C0E00508
:100B900083D582F7742EC0E00583C164F42402FD7E
:100BA0007F30BD02027F2E858382E9C0E0E581C3EC
:100BB0009583F9E7CFF709D582F9D0E0F9EFC0E0E6
:100BC0007F300583DDDAEDF4142583F582C164D22C
:100BD000F7120CB9BFFF030208E9A2F0B392F43197
:100BE00012700104B4FF027406F5823105BF7C0067
:0E0BF0004014EF248020E705B582005009C3B1
:100BFE009582F414310561533112143105811AD2E4
:100C0E00F7120CB9C2F4BFFF030208E9E9C0E0EF26
:100C1E002481FFC0F0E58314FD0D0583F582F425D4
:100C2E0081F975F02EE7C5F0F709DDF9A9F0D0F0DE
:100C3E00D146AC835010F404F58285F083F109D5CA
:100C4E0082FB8583F0E430F413F582D0E0B43003F8
:100C5E001C80F8C0E0E582BC0202D2F28C8330F236
:100C6E0008C582D0E01583C5827582306007C082C8
:100C7E0014058380F7744530F7027465C0E0EF20E9
:100C8E00E704742B80057F2DF404CFC0E0ADF0EFA8
:100C9E0075F00A842430C0E0E5F02430C0E0E5832E
:100CAE002404F5838DF0758200C19A18E63308E6A8
:100CBE003392D518186039B4FF4CE6C2E76009903C
:100CCE000FAB7D03C2D18014900FAED2D17D033015
:100CDE00D1147F2B30D5027F2D120EFBE4FF93CF64
:100CEE00120EFBA3DDF6E4F5F0F5837FFF18182254
:100CFE0074307F02D082D083C0E0DFFC7F7FC08360
:100D0E00C08275830222CFD083D082EAC0E0C0F0C9
:100D1E00EEC0E0E9C0E0EBC0E0C082C083CFFA7560
:100D2E00F010A4CAABF075F04DA42BFBE435F0FC2B
:100D3E00EA2410FAEB34C5FBEC34D9FCE6C2E7FF2B
:100D4E0075F056A4F42411C5F0F434C58FF0A42A1E
:100D5E00E5F03BE43CFBC0E0EBC0E020E707800899
:100D6E0012036A8022F404FBE8C0E0120329D0E0EB
:100D7E00F8D0F0E8C0E075820418E608C0E0D5822D
:100D8E00F930F7DC1201A0EED2E7CE33EF33248236
:100D9E00FAECFBD0E0F8D0E0FCE4BA0002800DC320
:100DAE00CB33CBCD33CDCE33CE33DAF37900C58210
:100DBE00D0E0CAD0E0C5827583081C60160C75F0B1
:100DCE000A8460082430C0E00915830CE5F0243055
:100DDE00C0E0098BF0740AA4FBAFF08DF0740AA486
:100DEE002FFDAFF050010F8EF0740AA42FFE743059
:100DFE0035F0C0E009D583DBEC247FFFE9FC04600D
:100E0E0003120F09EF046003120F09ECF58324049B
:100E1E00FEE5819EFED0E0CBC082EEC9E7CBF7099E
:100E2E00C9B581F7DCF41581D0E0F9D0E0FED0F041
:100E3E00D0E0C082CAC0E0223112B4FF0274063183
:100E4E0005C2F2700520F002D2F2A2F572F672D14E
:100E5E0092F0C3958222D1465012F404F582AC83EF
:100E6E00AFF0F109D582FB8FF08C83E4F58230F47C
:100E7E00143112FCD0E0B430051C158380F6C0E0AE
:100E8E00EC7002D2F230F204D0E01583E583FD253A
:100E9E0082FF310FC330F001D39F5001E4F583C0C0
:100EAE008230F30575820A711820F102D1EA75823B
:100EBE000A7118D082E8C0E0EDFC14F42581F8E642
:100ECE0008FFD1FBDCF9D2F3C083858283D1EAD04F
:100EDE0083D0E0F8D0E0DDFC181801E9E583600C62
:100EEE007F2030F3027F30D1FBD583F4223121BB3A
:100EFE00FF0412011D22EF12004B22D0E0FDD0E0C4
:100F0E00D0F0C0E0EDC0E0E9C0E0E58124FEF9ECF0
:100F1E00FD1CE5F0B436005004D0E0F9221DED6062
:100F2E001319E7B42E0280F504B43A057430F78035
:100F3E00ECF780E5EC2404F5F07D31E7CDF709D52B
:100F4E00F0F90CF9221830F402181822286E756C7C
:100F5E006C290049584450436C106200680023010C
:100F6E002D022B2020402E80002A09306F0A19787E
:100F7E000994580996730AAE750A75640A83690A4C
:100F8E00836309686E0940250984700988660B46DB
:100F9E00650C0D450C0F670BCF470BD1004E614E04
:030FAE00494E4663
:00000001FF
