:03000000020130CA
:10000300EEC0E0EFC0E088F0E58124FDF8ECC6C067
:09001300E008EDC6C0E0A8F022EF
:10001C00EB30E11320E00EC083C08289828A83E03A
:10002C00D082D08322E3226405700EC083C0828903
:0B003C00828A8393D082D08322E722C7
:04004700116B0153E5
:04004B0011870159BF
:04004F0011A30153A5
:0600530008B800010C22B8
:0600590009B900010A22B2
:0C005F00E0A3FCE0A3FDE0A3FEE0FF2214
:10006B00CD30E11520E00FC083C08288828C83CD18
:0C007B00F0D082D08322CDF222CDF622FC
:10008700CB30E11520E00FC083C08289828A83CB01
:0C009700F0D082D08322CBF322CBF722E2
:1000A300ED30E11320E00EC083C08288828C83E0B0
:1000B300D082D08322E2226405700EC083C082887E
:0B00C300828C8393D082D08322E6223F
:1000CE00E4FEFFEB700122239000D87380088011AC
:1000DE00801E80028025E7090FBF00010E70F78099
:1000EE002889828A83E0A30FBF00010E70F7801962
:1000FE00E3090FBF00010E70F7800E89828A83E438
:0F010E0093A30FBF00010E70F61FBFFF011E224B
:10011D00EFB40A077F0D12011D7F0A3099FDC299B8
:03012D008F992285
:10013000758136E4787FF6D8FD9007B5E4937002B8
:10014000804EC31392D5C31392D1FFA3E493F8B0AA
:10015000D5402130D505E4A393F5A0E420D102A336
:100160009320D507F608DFF3A380D1F208B800F694
:1001700005A080F2E8030303541F2420F9E8540784
:10018000F8E4D333B80002800333D8FD47F780D8B2
:0601900075A0FF02100142
:1001960012005FEFB2E7FF800312005FE58124FDE6
:1001A600F8F9E63308E633700602042E02041D044D
:1001B60060FAEE33EF33700EE6FF18E6FE18E6FD42
:1001C60018E6FC02042E0460E3E58124FBF8D3EC78
:1001D6009608ED9608EE9608EFC2E786F0C2F79508
:1001E600F0400FEFC6FF18EEC6FE18EDC6FD18EC80
:1001F600C6FC12043FC3EB9FF5F0700EE58124FBAD
:10020600F9E4C3CC20D5730202D19418605C400E89
:10021600E4FF19E7FE19E7FD19E7FC0202ADE4FF6A
:1002260030F405CEFCE4CDFF30F305E4CECDCCCFE3
:1002360030F21AE5D054184404F8EF54F0D6C4FF4F
:1002460008ECD6C4FC08EDD6C4FDEEC4FE74035516
:10025600F06012F5F0C3EE13FEED13FDEC13FCEFA8
:1002660013FFD5F0F030D55D8009E4CEFFE4FDFC48
:1002760030D552C3E49FCC191919C797CD09C79732
:10028600CE09C797FF4E4D4C701402042EDB0302B5
:100296000421EC2CFCED33FDEE33FEEF33FFEF30A3
:1002A600E7EBECCFCECDFCEF30E70D0CBC00090D33
:1002B600BD00050EBE00010BEB7005A2D1020415B0
:1002C600A2D1020428E42FCC19191937CD0937CE4B
:1002D6000937FF50090BEB700CA2D1020415EFCEC3
:1002E600CDCCFF80C2EF13CE13CD13CC13FF80B756
:1002F600D083D08202042112005FEFC2E74E700362
:1003060002041DC082C083E58124FBF8F9E6084695
:1003160060DE12043F0FBF0006D083D08280E1EF7B
:1003260024805007C3CB9B500D80C5CB9B4007D084
:1003360083D082020415F6F583EC4D701FBE801C37
:10034600E58124FBF8E583A2D513FFE692E7FE18C4
:10035600E6FD18E6FCD083D08202042EE58124FB5C
:10036600F8E6CEF618E6CDF618E6CCF6EFCCFFE8C2
:100376002402F9F8E7FA19E7FB19E7FCE4F5F0754A
:10038600821A758380801DE58303F58330E706A70F
:10039600F009E4F5F0C3EF33FFED33FDEE33FE4035
:1003A6000C30E717C3EF9CED9BEE9A400EC3EF9C13
:1003B600FFED9BFDEE9AFEE58342F0D582C9E7FA92
:1003C60019E9F81919E720E7191ABA00030202F623
:1003D600E5F025F0FFE633FC18E633FD18E633FEBC
:1003E6008009FE09E7FDE6FCE5F0FFEF30E7160CB5
:1003F600BC00120DBD000E0EBE000A0A7007D083A7
:0F040600D082020415EAA2D5D083D08202042846
:1004150074FF13FF7E80800774FF8001E4FFFEFDFB
:10042500FC800613FFEE92E7FED0E0F8D0F0E58100
:1004350024FCF581C0F0E8C0E022E7D2E7C7330924
:10044500E733FB92D592D1EED2E7CE33EF33FF50AF
:0404550002B2D522F8
:100459003F8000003DCCCCCD3C23D70A3A83126FB4
:1004690038D1B7173727C5AC358637BD33D6BF95D1
:10047900322BCC7724E69595179ABE150A4FB11FF2
:10048900EB60105407700AEB543803241C1204B4AF
:100499002223231204B4EB543870012203241CFBD9
:1004A900120003EB1204B412051122900459FC93B3
:0E04B900FF0CEC93FE0CEC93FD0CEC93FC227C
:1004C700E58124FEF88FF063F080E6F96480B5F0EB
:1004D7001B188EF0E6B5F014188DF0E6B5F00D1880
:1004E7008CF0E6B5F006E4FFFE02042E8FF030F73D
:1004F7000689F030F701B340077F017E0002042E22
:0705070074FFFFFE02042E49
:10050E0012005FEF4E601AE58124FEF924FEF8E733
:10051E0019477019EE33EF33B4FF0302041D0204C2
:10052E0021E58124FDF8E63308E63380EB12043F23
:10053E00248150082B5008A2D50204152B50DFF74A
:10054E00FAE61846197020B7800DEE33CAA2D513FD
:10055E00FFCA13FE02042EEC4D703CBE8046E6FC34
:10056E0008E6FD08E680E4EC4D7039BE800280EEB0
:10057E00E4CEC7CDC6F5F008E4C6CCF9FBFFFA8091
:10058E0076E4CEC9E4CDCAE4FFCCFB803CE4C9CD11
:10059E00CFCBECCACC8060E4F9FAFBFFCECDCCC554
:1005AE00F00880538CF0E660D8A4C5F0CDFAC5F003
:1005BE00E6A42DCEF9C5F03400FDE6A42DC5F03429
:1005CE0000FDCCFBC5F0CC7F0008E660C0A42EC5B4
:1005DE00F03C50010DCAFCC5F0CEE6A42AC5F03D94
:1005EE0050010FC9FDC5F0CAE6A429C5F03F790137
:1005FE00400119CBC5F0CF08E6A42AC5F03F50053F
:10060E000BBB000109CCC5F0FAE6A42CC5F03B509B
:10061E000109CDC5F0CCE6A42DFDC5F039FE330899
:10062E00500906B60011A2D5020415EA33FAEC33CE
:10063E00FCED33FDEE33FEEA30E7140CBC00100D7A
:10064E00BD000C0EBE000806B60004A2D580D9E689
:05065E00A2D5020428F2
:080663008E048F05EC4D6016BA
:10066B00E4FA7B03EA4B6007EB1B70F81A80F5ED9D
:07067B001D70E91C80E6225E
:1006820075F004EF23D5F0FC540F4410F580E4F527
:1006920080EF540F4410F580E4F580FE7FC8020617
:0106A20063F4
:1006A300758013758003E4FE7FC81206637580139B
:1006B30075800312066375801375800312066375D4
:1006C30080127580021206637F281206827F0C1245
:0706D30006827F0602068289
:0506DA007F0102068211
:1006DF0075F004EF23D5F0FC540F4490F58054804F
:1006EF00F580EF540F4490F5805480F5807E007FA5
:0406FF00C8020663C4
:07070300EF4480FF020682B3
:05070A007F02020682DF
:0B070F008B318A3289338D34BD010527
:0A071A00E4FF120703E534B4020502
:0A0724007F40120703E534B403051B
:0A072E007F10120703E534B4040540
:100738007F50120703AB31AA32A93312001C601E86
:10074800AB31AA32A9330533E53370020532120002
:0F0758001CFF1206DFE4FE7FC812066380D72263
:1007670075B28375D90075A4FF75A5FF75A6FF75CA
:09077700A7FF75AEFF75E24022F8
:0C078000E4F525F5267527A87528412210
:10078C004465727A6569746967652054656D706536
:10079C0072617475723A202564B000536F6C6C777B
:0907AC006572743A202564B00066
:1007B500041C01101D0000003F10210000A841107D
:1007C500250000A841102900007041102D0000F0FF
:0107D50041E2
:0107D6000022
:10080000EBFDEAFCE9F87BFFD083D0828581F0E440
:10081000C0E0C0E0C0E0AE81C082C08385F08275D8
:10082000F000C2D58009D0E0FDD0E0FCD0E0F812A5
:10083000004FFFC3E8C0E0ECC0E0EDC0E0EF605F58
:1008400030D5030208BAB4250D74FF3105D3740006
:1008500011FBD2D580D0120EFB80CBFF310F20F7D9
:10086000237009BF0013D2F3888280BAC0F075F0FC
:100870000AA42FD0F020F706FFEF11FB800231050C
:10088000888280A23112B4FFE3EF80F2E4120EFB03
:10089000D33122800DEF24D0B40A0040BE0126BB24
:1008A000FFEAE58124FDF581D082D08324FCF58127
:1008B000D0E0C083C082FF7E0022A882FF900F6636
:1008C000E493601F6FA36006A350F5A380F293FF2B
:1008D000400642F0888280C5A3E4938F83F582C2EC
:1008E000D1E47340B0D3A380D7C2F3D1EA8882D0D9
:1008F000E0FDD0E0FCD0E0F802081FC38008311210
:10090000B4FF027401D3CEC8CE500118F6800BC3D9
:100910008001D3CEC8CE500118E6500108CEC8CE13
:1009200022C3CE1414C8CE065002161608D380EA8D
:10093000E620F70411FB8002310518188882012691
:10094000E9C0E0E8F9E7F819E7FC19E7FD19E9C0A3
:10095000E0E4120047EE24FEF9E7C9D0E0C9120036
:1009600047E9F8D0E0F901EDE6FF1818310F24FF50
:100970004001E4F58320F108EFC0E0D1EAD0E0FFC8
:10098000D1FB01E97F2580E4C2F07406FD310575D5
:1009900082038012D2D1C2F611FE7582027D04302C
:1009A000F4048D827D08E618F583540FC0E0E583DA
:1009B00054F0C4C0E01582E58270EB7582008000BF
:1009C000D0E07006ED60031D80F6C0E03112C39DDB
:1009D000600B4009758300C0830DD5E0F9E5827096
:1009E0000430F0010D310FC330F001D39D5001E40C
:1009F000F58330F302711820F102D1EA7118BD00BD
:100A00000201E9D0E024F6500730D1022420240767
:100A1000243AFFD1FBDDEC01E9C2F6740630F402A2
:100A2000740B30F00104FD7582088D8311FEC0F057
:100A3000F153E6FC08E618CC7F0130F4027F038511
:100A400082F084F6EC54F025F0C48582F084C4CCA6
:100A5000540FC5F0C425F08582F0842C08F6DF0F12
:100A6000D0E0C5F0C0E0EFD583C4F1531821C00831
:100A7000E618FC80D0C2F07D0530F4027D0A758254
:100A80000A80A7E8FDF153E630E717D2D1EDF875FB
:100A9000820230F402758204C3E6CFE49FF618D5D3
:100AA00082F7EDF8A2F572F672D192F080C9E6C035
:100AB000E018E6FC18E6FD18D0E0C8F582EBC0E0CF
:100AC000EAC0E0E9C0E0EDFBECFAE8F9C082EEC074
:100AD000E01200CED0E0FED082D0E0F9D0E0FAD033
:100AE000E0FB31128F83B583005002F583310FC3D1
:100AF00095835001E4F58320F102D1EAC0833112DD
:100B0000F583E583600C158312004F6005FFD1FB70
:100B100080F0A882D08301E930F028E582B40A1180
:100B20007F2D20D10E7F2B20F5097F2030F61480F9
:100B3000027F30D1FBE582700A7F7820D1027F5896
:100B40001DD1FBC2F022C2F7120CB9C2F4BFFF03E1
:100B50000208E9EF2481FF20E7420FE583C39F608D
:100B600020401EC9C0E0C9F582FF0583F404258139
:100B7000F97D2EE7CDF709DFFAD0E0F9EDC0E0808E
:100B800019F404F5827F00058280067430C0E00508
:100B900083D582F7742EC0E00583C164F42402FD7E
:100BA0007F30BD02027F2E858382E9C0E0E581C3EC
:100BB0009583F9E7CFF709D582F9D0E0F9EFC0E0E6
:100BC0007F300583DDDAEDF4142583F582C164D22C
:100BD000F7120CB9BFFF030208E9A2F0B392F43197
:100BE00012700104B4FF027406F5823105BF7C0067
:0E0BF0004014EF248020E705B582005009C3B1
:100BFE009582F414310561533112143105811AD2E4
:100C0E00F7120CB9C2F4BFFF030208E9E9C0E0EF26
:100C1E002481FFC0F0E58314FD0D0583F582F425D4
:100C2E0081F975F02EE7C5F0F709DDF9A9F0D0F0DE
:100C3E00D146AC835010F404F58285F083F109D5CA
:100C4E0082FB8583F0E430F413F582D0E0B43003F8
:100C5E001C80F8C0E0E582BC0202D2F28C8330F236
:100C6E0008C582D0E01583C5827582306007C082C8
:100C7E0014058380F7744530F7027465C0E0EF20E9
:100C8E00E704742B80057F2DF404CFC0E0ADF0EFA8
:100C9E0075F00A842430C0E0E5F02430C0E0E5832E
:100CAE002404F5838DF0758200C19A18E63308E6A8
:100CBE003392D518186039B4FF4CE6C2E76009903C
:100CCE000FAB7D03C2D18014900FAED2D17D033015
:100CDE00D1147F2B30D5027F2D120EFBE4FF93CF64
:100CEE00120EFBA3DDF6E4F5F0F5837FFF18182254
:100CFE0074307F02D082D083C0E0DFFC7F7FC08360
:100D0E00C08275830222CFD083D082EAC0E0C0F0C9
:100D1E00EEC0E0E9C0E0EBC0E0C082C083CFFA7560
:100D2E00F010A4CAABF075F04DA42BFBE435F0FC2B
:100D3E00EA2410FAEB34C5FBEC34D9FCE6C2E7FF2B
:100D4E0075F056A4F42411C5F0F434C58FF0A42A1E
:100D5E00E5F03BE43CFBC0E0EBC0E020E707800899
:100D6E001205118022F404FBE8C0E0120489D0E0E1
:100D7E00F8D0F0E8C0E075820418E608C0E0D5822D
:100D8E00F930F7DC120300EED2E7CE33EF332482D4
:100D9E00FAECFBD0E0F8D0E0FCE4BA0002800DC320
:100DAE00CB33CBCD33CDCE33CE33DAF37900C58210
:100DBE00D0E0CAD0E0C5827583081C60160C75F0B1
:100DCE000A8460082430C0E00915830CE5F0243055
:100DDE00C0E0098BF0740AA4FBAFF08DF0740AA486
:100DEE002FFDAFF050010F8EF0740AA42FFE743059
:100DFE0035F0C0E009D583DBEC247FFFE9FC04600D
:100E0E0003120F09EF046003120F09ECF58324049B
:100E1E00FEE5819EFED0E0CBC082EEC9E7CBF7099E
:100E2E00C9B581F7DCF41581D0E0F9D0E0FED0F041
:100E3E00D0E0C082CAC0E0223112B4FF0274063183
:100E4E0005C2F2700520F002D2F2A2F572F672D14E
:100E5E0092F0C3958222D1465012F404F582AC83EF
:100E6E00AFF0F109D582FB8FF08C83E4F58230F47C
:100E7E00143112FCD0E0B430051C158380F6C0E0AE
:100E8E00EC7002D2F230F204D0E01583E583FD253A
:100E9E0082FF310FC330F001D39F5001E4F583C0C0
:100EAE008230F30575820A711820F102D1EA75823B
:100EBE000A7118D082E8C0E0EDFC14F42581F8E642
:100ECE0008FFD1FBDCF9D2F3C083858283D1EAD04F
:100EDE0083D0E0F8D0E0DDFC181801E9E583600C62
:100EEE007F2030F3027F30D1FBD583F4223121BB3A
:100EFE00FF0412011D22EF12004B22D0E0FDD0E0C4
:100F0E00D0F0C0E0EDC0E0E9C0E0E58124FEF9ECF0
:100F1E00FD1CE5F0B436005004D0E0F9221DED6062
:100F2E001319E7B42E0280F504B43A057430F78035
:100F3E00ECF780E5EC2404F5F07D31E7CDF709D52B
:100F4E00F0F90CF9221830F402181822286E756C7C
:100F5E006C290049584450436C106200680023010C
:100F6E002D022B2020402E80002A09306F0A19787E
:100F7E000994580996730AAE750A75640A83690A4C
:100F8E00836309686E0940250984700988660B46DB
:100F9E00650C0D450C0F670BCF470BD1004E614E04
:030FAE00494E4663
:100FB100C021C022C023C0247B01E4FA79087D0549
:100FC1007C07788C12080874FC2581F5817B0179F6
:100FD10008E4FA7D0112070FC025C026C027C028EA
:100FE1007B017908E4FA7D057C0778A7120808746B
:100FF100FC2581F5817B017908E4FA7D0202070F66
:0C1001001207671206A31206DA1207801D
:06100D00120FB120B141F9
:10101300C025C026C027C028C02DC02EC02FC03079
:10102300AC1DAD1EAE1FAF201201991204C7BF0144
:0310330002801B1D
:10103600C025C026C027C028AC1DAD1EAE1FAF20E0
:101046001201A28C258D268E278F2830B1FD20B265
:011056004158
:10105700C025C026C027C028C01DC01EC01FC02075
:10106700AC29AD2AAE2BAF2C1201A21204C7BFFFC9
:0310770002801BD9
:10107A00C025C026C027C028AC1DAD1EAE1FAF209C
:10108A001201998C258D268E278F2830B2FD30B318
:04109A000302100D30
:0F109E00E51C24FFB3E433F51C30B3FD02100D45
:00000001FF
